{
  "contractName": "FitChain",
  "abi": [
    {
      "inputs": [
        {
          "internalType": "uint256",
          "name": "feePerMonth",
          "type": "uint256"
        },
        {
          "internalType": "uint256",
          "name": "userDeadline",
          "type": "uint256"
        }
      ],
      "stateMutability": "nonpayable",
      "type": "constructor"
    },
    {
      "anonymous": false,
      "inputs": [
        {
          "indexed": true,
          "internalType": "address",
          "name": "from",
          "type": "address"
        },
        {
          "indexed": true,
          "internalType": "address",
          "name": "to",
          "type": "address"
        },
        {
          "indexed": false,
          "internalType": "uint256",
          "name": "value",
          "type": "uint256"
        }
      ],
      "name": "Transfer",
      "type": "event"
    },
    {
      "anonymous": false,
      "inputs": [
        {
          "indexed": false,
          "internalType": "uint256",
          "name": "id",
          "type": "uint256"
        }
      ],
      "name": "newUserEnrolled",
      "type": "event"
    },
    {
      "inputs": [
        {
          "internalType": "address",
          "name": "",
          "type": "address"
        }
      ],
      "name": "balance",
      "outputs": [
        {
          "internalType": "uint256",
          "name": "",
          "type": "uint256"
        }
      ],
      "stateMutability": "view",
      "type": "function",
      "constant": true
    },
    {
      "inputs": [],
      "name": "calorieCount",
      "outputs": [
        {
          "internalType": "uint256",
          "name": "",
          "type": "uint256"
        }
      ],
      "stateMutability": "view",
      "type": "function",
      "constant": true
    },
    {
      "inputs": [],
      "name": "deadline",
      "outputs": [
        {
          "internalType": "uint256",
          "name": "",
          "type": "uint256"
        }
      ],
      "stateMutability": "view",
      "type": "function",
      "constant": true
    },
    {
      "inputs": [],
      "name": "fee",
      "outputs": [
        {
          "internalType": "uint256",
          "name": "",
          "type": "uint256"
        }
      ],
      "stateMutability": "view",
      "type": "function",
      "constant": true
    },
    {
      "inputs": [],
      "name": "monthToSecond",
      "outputs": [
        {
          "internalType": "uint256",
          "name": "",
          "type": "uint256"
        }
      ],
      "stateMutability": "view",
      "type": "function",
      "constant": true
    },
    {
      "inputs": [],
      "name": "numUsers",
      "outputs": [
        {
          "internalType": "uint256",
          "name": "",
          "type": "uint256"
        }
      ],
      "stateMutability": "view",
      "type": "function",
      "constant": true
    },
    {
      "inputs": [],
      "name": "owner",
      "outputs": [
        {
          "internalType": "address payable",
          "name": "",
          "type": "address"
        }
      ],
      "stateMutability": "view",
      "type": "function",
      "constant": true
    },
    {
      "inputs": [
        {
          "internalType": "uint256",
          "name": "",
          "type": "uint256"
        }
      ],
      "name": "users",
      "outputs": [
        {
          "internalType": "string",
          "name": "name",
          "type": "string"
        },
        {
          "internalType": "address",
          "name": "addr",
          "type": "address"
        },
        {
          "internalType": "uint256",
          "name": "amount",
          "type": "uint256"
        },
        {
          "internalType": "uint256",
          "name": "weight",
          "type": "uint256"
        },
        {
          "internalType": "uint256",
          "name": "height",
          "type": "uint256"
        },
        {
          "internalType": "uint256",
          "name": "age",
          "type": "uint256"
        },
        {
          "internalType": "uint256",
          "name": "startAt",
          "type": "uint256"
        },
        {
          "internalType": "uint256",
          "name": "endAt",
          "type": "uint256"
        },
        {
          "internalType": "bool",
          "name": "isEnd",
          "type": "bool"
        },
        {
          "internalType": "bool",
          "name": "isUnsubscribed",
          "type": "bool"
        }
      ],
      "stateMutability": "view",
      "type": "function",
      "constant": true
    },
    {
      "inputs": [],
      "name": "checkDeadline",
      "outputs": [],
      "stateMutability": "payable",
      "type": "function",
      "payable": true
    },
    {
      "inputs": [
        {
          "internalType": "uint256",
          "name": "id",
          "type": "uint256"
        }
      ],
      "name": "check",
      "outputs": [
        {
          "internalType": "uint256",
          "name": "",
          "type": "uint256"
        }
      ],
      "stateMutability": "view",
      "type": "function",
      "constant": true
    },
    {
      "inputs": [
        {
          "internalType": "address",
          "name": "to",
          "type": "address"
        },
        {
          "internalType": "uint256",
          "name": "C_count",
          "type": "uint256"
        }
      ],
      "name": "transfer",
      "outputs": [],
      "stateMutability": "payable",
      "type": "function",
      "payable": true
    },
    {
      "inputs": [
        {
          "internalType": "uint256",
          "name": "month",
          "type": "uint256"
        },
        {
          "internalType": "uint256",
          "name": "height",
          "type": "uint256"
        },
        {
          "internalType": "uint256",
          "name": "weight",
          "type": "uint256"
        },
        {
          "internalType": "uint256",
          "name": "age",
          "type": "uint256"
        },
        {
          "internalType": "string",
          "name": "name",
          "type": "string"
        }
      ],
      "name": "pay",
      "outputs": [],
      "stateMutability": "payable",
      "type": "function",
      "payable": true
    }
  ],
  "bytecode": "0x60806040523480156200001157600080fd5b50604051620016e7380380620016e78339818101604052810190620000379190620000b6565b336000806101000a81548173ffffffffffffffffffffffffffffffffffffffff021916908373ffffffffffffffffffffffffffffffffffffffff160217905550600060028190555081600381905550806004819055506228206f60058190555050506200011b565b600081519050620000b08162000101565b92915050565b60008060408385031215620000ca57600080fd5b6000620000da858286016200009f565b9250506020620000ed858286016200009f565b9150509250929050565b6000819050919050565b6200010c81620000f7565b81146200011857600080fd5b50565b6115bc806200012b6000396000f3fe6080604052600436106100a75760003560e01c80638da5cb5b116100645780638da5cb5b146101ab578063a9059cbb146101d6578063ac1acc81146101f2578063b56845141461021d578063ddca3f4314610248578063e3d670d714610273576100a7565b806319a50f49146100ac57806329dcb0cf146100d75780632ff7357d14610102578063365b98b21461011e57806343bf9936146101645780635f72f4501461016e575b600080fd5b3480156100b857600080fd5b506100c16102b0565b6040516100ce91906111a1565b60405180910390f35b3480156100e357600080fd5b506100ec6102b6565b6040516100f991906111a1565b60405180910390f35b61011c60048036038101906101179190610fdf565b6102bc565b005b34801561012a57600080fd5b5061014560048036038101906101409190610fb6565b61072f565b60405161015b9a999897969594939291906110fe565b60405180910390f35b61016c610845565b005b34801561017a57600080fd5b5061019560048036038101906101909190610fb6565b610a09565b6040516101a291906111a1565b60405180910390f35b3480156101b757600080fd5b506101c0610ae8565b6040516101cd91906110e3565b60405180910390f35b6101f060048036038101906101eb9190610f7a565b610b0c565b005b3480156101fe57600080fd5b50610207610cf7565b60405161021491906111a1565b60405180910390f35b34801561022957600080fd5b50610232610cfd565b60405161023f91906111a1565b60405180910390f35b34801561025457600080fd5b5061025d610d03565b60405161026a91906111a1565b60405180910390f35b34801561027f57600080fd5b5061029a60048036038101906102959190610f51565b610d09565b6040516102a791906111a1565b60405180910390f35b60025481565b60045481565b60035434146102ca57600080fd5b60005b60025481116104c6573373ffffffffffffffffffffffffffffffffffffffff166007600083815260200190815260200160002060010160009054906101000a900473ffffffffffffffffffffffffffffffffffffffff1673ffffffffffffffffffffffffffffffffffffffff1614801561036857506007600082815260200190815260200160002060080160019054906101000a900460ff16155b156104b357610396346007600084815260200190815260200160002060020154610d2190919063ffffffff16565b60076000838152602001908152602001600020600201819055506103ed6103c860055488610d7390919063ffffffff16565b6007600084815260200190815260200160002060070154610d2190919063ffffffff16565b600760008381526020019081526020016000206007018190555060006007600083815260200190815260200160002060080160006101000a81548160ff021916908315150217905550846007600083815260200190815260200160002060040181905550836007600083815260200190815260200160002060030181905550826007600083815260200190815260200160002060040181905550816007600083815260200190815260200160002060000190805190602001906104b1929190610e1c565b505b80806104be90611442565b9150506102cd565b600060076000600260008154809291906104df90611442565b9190505581526020019081526020016000206040518061014001604052908160008201805461050d906113df565b80601f0160208091040260200160405190810160405280929190818152602001828054610539906113df565b80156105865780601f1061055b57610100808354040283529160200191610586565b820191906000526020600020905b81548152906001019060200180831161056957829003601f168201915b505050505081526020016001820160009054906101000a900473ffffffffffffffffffffffffffffffffffffffff1673ffffffffffffffffffffffffffffffffffffffff1673ffffffffffffffffffffffffffffffffffffffff1681526020016002820154815260200160038201548152602001600482015481526020016005820154815260200160068201548152602001600782015481526020016008820160009054906101000a900460ff161515151581526020016008820160019054906101000a900460ff161515151581525050905033816020019073ffffffffffffffffffffffffffffffffffffffff16908173ffffffffffffffffffffffffffffffffffffffff168152505034816040018181525050428160c0018181525050600554876106b391906112b5565b8160c001516106c2919061122e565b8160e00181815250506000816101000190151590811515815250506000816101200190151590811515815250507f885d59ab46c5120429c7caf6559d06839aefae1ca72b23135be7474e5ca3e06a8260405161071e91906111a1565b60405180910390a150505050505050565b6007602052806000526040600020600091509050806000018054610752906113df565b80601f016020809104026020016040519081016040528092919081815260200182805461077e906113df565b80156107cb5780601f106107a0576101008083540402835291602001916107cb565b820191906000526020600020905b8154815290600101906020018083116107ae57829003601f168201915b5050505050908060010160009054906101000a900473ffffffffffffffffffffffffffffffffffffffff16908060020154908060030154908060040154908060050154908060060154908060070154908060080160009054906101000a900460ff16908060080160019054906101000a900460ff1690508a565b60008054906101000a900473ffffffffffffffffffffffffffffffffffffffff1673ffffffffffffffffffffffffffffffffffffffff163373ffffffffffffffffffffffffffffffffffffffff161461089d57600080fd5b60005b6002548111610a06576007600082815260200190815260200160002060080160019054906101000a900460ff166109f35760045460076000838152602001908152602001600020600701546108f5919061122e565b4210156007600083815260200190815260200160002060080160006101000a81548160ff0219169083151502179055506007600082815260200190815260200160002060080160009054906101000a900460ff16156109f25760008054906101000a900473ffffffffffffffffffffffffffffffffffffffff1673ffffffffffffffffffffffffffffffffffffffff166108fc60076000848152602001908152602001600020600201549081150290604051600060405180830381858888f193505050506109c257600080fd5b60016007600083815260200190815260200160002060080160016101000a81548160ff0219169083151502179055505b5b80806109fe90611442565b9150506108a0565b50565b600080610a3660076000858152602001908152602001600020600501546006610d7390919063ffffffff16565b90506000610a6460076000868152602001908152602001600020600401546005610d7390919063ffffffff16565b90506000610a926007600087815260200190815260200160002060030154600d610d7390919063ffffffff16565b90506000610aaa826043610d2190919063ffffffff16565b90506000610ac18483610d2190919063ffffffff16565b90506000610ad88683610dcf90919063ffffffff16565b9050809650505050505050919050565b60008054906101000a900473ffffffffffffffffffffffffffffffffffffffff1681565b60008054906101000a900473ffffffffffffffffffffffffffffffffffffffff1673ffffffffffffffffffffffffffffffffffffffff163373ffffffffffffffffffffffffffffffffffffffff1614610b6457600080fd5b6101f48111610b7257600080fd5b34600160003373ffffffffffffffffffffffffffffffffffffffff1673ffffffffffffffffffffffffffffffffffffffff16815260200190815260200160002054610bbd919061130f565b600160003373ffffffffffffffffffffffffffffffffffffffff1673ffffffffffffffffffffffffffffffffffffffff1681526020019081526020016000208190555034600160008473ffffffffffffffffffffffffffffffffffffffff1673ffffffffffffffffffffffffffffffffffffffff16815260200190815260200160002054610c4b919061122e565b600160008473ffffffffffffffffffffffffffffffffffffffff1673ffffffffffffffffffffffffffffffffffffffff168152602001908152602001600020819055508173ffffffffffffffffffffffffffffffffffffffff163373ffffffffffffffffffffffffffffffffffffffff167fddf252ad1be2c89b69c2b068fc378daa952ba7f163c4a11628f55a4df523b3ef34604051610ceb91906111a1565b60405180910390a35050565b60055481565b60065481565b60035481565b60016020528060005260406000206000915090505481565b6000808284610d30919061122e565b905083811015610d69577f4e487b7100000000000000000000000000000000000000000000000000000000600052600160045260246000fd5b8091505092915050565b6000808284610d8291906112b5565b9050828482610d919190611284565b14610dc5577f4e487b7100000000000000000000000000000000000000000000000000000000600052600160045260246000fd5b8091505092915050565b600082821115610e08577f4e487b7100000000000000000000000000000000000000000000000000000000600052600160045260246000fd5b8183610e14919061130f565b905092915050565b828054610e28906113df565b90600052602060002090601f016020900481019282610e4a5760008555610e91565b82601f10610e6357805160ff1916838001178555610e91565b82800160010185558215610e91579182015b82811115610e90578251825591602001919060010190610e75565b5b509050610e9e9190610ea2565b5090565b5b80821115610ebb576000816000905550600101610ea3565b5090565b6000610ed2610ecd846111e1565b6111bc565b905082815260208101848484011115610eea57600080fd5b610ef584828561139d565b509392505050565b600081359050610f0c81611558565b92915050565b600082601f830112610f2357600080fd5b8135610f33848260208601610ebf565b91505092915050565b600081359050610f4b8161156f565b92915050565b600060208284031215610f6357600080fd5b6000610f7184828501610efd565b91505092915050565b60008060408385031215610f8d57600080fd5b6000610f9b85828601610efd565b9250506020610fac85828601610f3c565b9150509250929050565b600060208284031215610fc857600080fd5b6000610fd684828501610f3c565b91505092915050565b600080600080600060a08688031215610ff757600080fd5b600061100588828901610f3c565b955050602061101688828901610f3c565b945050604061102788828901610f3c565b935050606061103888828901610f3c565b925050608086013567ffffffffffffffff81111561105557600080fd5b61106188828901610f12565b9150509295509295909350565b61107781611355565b82525050565b61108681611343565b82525050565b61109581611367565b82525050565b60006110a682611212565b6110b0818561121d565b93506110c08185602086016113ac565b6110c981611547565b840191505092915050565b6110dd81611393565b82525050565b60006020820190506110f8600083018461106e565b92915050565b6000610140820190508181036000830152611119818d61109b565b9050611128602083018c61107d565b611135604083018b6110d4565b611142606083018a6110d4565b61114f60808301896110d4565b61115c60a08301886110d4565b61116960c08301876110d4565b61117660e08301866110d4565b61118461010083018561108c565b61119261012083018461108c565b9b9a5050505050505050505050565b60006020820190506111b660008301846110d4565b92915050565b60006111c66111d7565b90506111d28282611411565b919050565b6000604051905090565b600067ffffffffffffffff8211156111fc576111fb611518565b5b61120582611547565b9050602081019050919050565b600081519050919050565b600082825260208201905092915050565b600061123982611393565b915061124483611393565b9250827fffffffffffffffffffffffffffffffffffffffffffffffffffffffffffffffff038211156112795761127861148b565b5b828201905092915050565b600061128f82611393565b915061129a83611393565b9250826112aa576112a96114ba565b5b828204905092915050565b60006112c082611393565b91506112cb83611393565b9250817fffffffffffffffffffffffffffffffffffffffffffffffffffffffffffffffff04831182151516156113045761130361148b565b5b828202905092915050565b600061131a82611393565b915061132583611393565b9250828210156113385761133761148b565b5b828203905092915050565b600061134e82611373565b9050919050565b600061136082611373565b9050919050565b60008115159050919050565b600073ffffffffffffffffffffffffffffffffffffffff82169050919050565b6000819050919050565b82818337600083830152505050565b60005b838110156113ca5780820151818401526020810190506113af565b838111156113d9576000848401525b50505050565b600060028204905060018216806113f757607f821691505b6020821081141561140b5761140a6114e9565b5b50919050565b61141a82611547565b810181811067ffffffffffffffff8211171561143957611438611518565b5b80604052505050565b600061144d82611393565b91507fffffffffffffffffffffffffffffffffffffffffffffffffffffffffffffffff8214156114805761147f61148b565b5b600182019050919050565b7f4e487b7100000000000000000000000000000000000000000000000000000000600052601160045260246000fd5b7f4e487b7100000000000000000000000000000000000000000000000000000000600052601260045260246000fd5b7f4e487b7100000000000000000000000000000000000000000000000000000000600052602260045260246000fd5b7f4e487b7100000000000000000000000000000000000000000000000000000000600052604160045260246000fd5b6000601f19601f8301169050919050565b61156181611343565b811461156c57600080fd5b50565b61157881611393565b811461158357600080fd5b5056fea264697066735822122072c3c7d070e9bfc4546962d4f9a75ea58ab1c51b7e7183b6b296ac3c84df10fa64736f6c63430008030033",
  "immutableReferences": {},
  "source": "pragma solidity ^0.8.3;\r\n\r\nlibrary SafeMath {\r\n    function mul(uint256 a, uint256 b) internal pure returns (uint256) {\r\n        uint256 c = a * b;\r\n        assert(c / a == b);\r\n        return c;\r\n    }\r\n\r\n    function div(uint256 a, uint256 b) internal pure returns (uint256) {\r\n        uint256 c = a / b;\r\n\r\n        return c;\r\n    }\r\n\r\n    function sub(uint256 a, uint256 b) internal pure returns (uint256) {\r\n        assert(b <= a);\r\n        return a - b;\r\n    }\r\n\r\n    function add(uint256 a, uint256 b) internal pure returns (uint256) {\r\n        uint256 c = a + b;\r\n        assert(c >= a);\r\n        return c;\r\n    }\r\n}\r\n\r\ncontract FitChain {\r\n    using SafeMath for uint256;\r\n    struct user {\r\n        string name;\r\n        address addr;\r\n        uint256 amount;\r\n        uint256 weight;\r\n        uint256 height;\r\n        uint256 age;\r\n        uint256 startAt;\r\n        uint256 endAt;\r\n        bool isEnd;\r\n        bool isUnsubscribed;\r\n    }\r\n    event newUserEnrolled(uint256 id);\r\n\r\n    event Transfer(address indexed from, address indexed to, uint256 value);\r\n\r\n    address payable public owner;\r\n    mapping(address => uint256) public balance;\r\n    uint256 public numUsers;\r\n    uint256 public fee;\r\n    uint256 public deadline;\r\n    uint256 public monthToSecond;\r\n    uint256 public calorieCount;\r\n\r\n    mapping(uint256 => user) public users;\r\n\r\n    modifier onlyOwner() {\r\n        require(msg.sender == owner);\r\n        _;\r\n    }\r\n\r\n    constructor(uint256 feePerMonth, uint256 userDeadline) {\r\n        owner = payable(msg.sender);\r\n        numUsers = 0;\r\n        fee = feePerMonth;\r\n        deadline = userDeadline;\r\n        monthToSecond = 2629743;\r\n    }\r\n\r\n    function checkDeadline() public payable onlyOwner {\r\n        uint256 id = 0;\r\n\r\n        while (id <= numUsers) {\r\n            if (!users[id].isUnsubscribed) {\r\n                users[id].isEnd = (block.timestamp >=\r\n                    users[id].endAt + deadline);\r\n\r\n                if (users[id].isEnd) {\r\n                    if (!owner.send(users[id].amount)) {\r\n                        revert();\r\n                    } else {\r\n                        users[id].isUnsubscribed = true;\r\n                    }\r\n                }\r\n            }\r\n\r\n            id++;\r\n        }\r\n    }\r\n\r\n    function check(uint256 id) public view returns (uint256) {\r\n        uint256 a = uint256(6).mul(users[id].age);\r\n        uint256 b = uint256(5).mul(users[id].height);\r\n        uint256 c = uint256(13).mul(users[id].weight);\r\n        uint256 d = uint256(67).add(c);\r\n        uint256 e = uint256(d).add(b);\r\n        uint256 f = uint256(e).sub(a);\r\n\r\n        return f;\r\n    }\r\n\r\n    function transfer(\r\n        address to,\r\n        uint256 C_count\r\n    ) public payable onlyOwner {\r\n        require(C_count > 500);\r\n        balance[msg.sender] = balance[msg.sender] - msg.value;\r\n        balance[to] = balance[to] + msg.value;\r\n        emit Transfer(msg.sender, to, msg.value);\r\n    }\r\n\r\n    function pay(\r\n        uint256 month,\r\n        uint256 height,\r\n        uint256 weight,\r\n        uint256 age,\r\n        string memory name\r\n    ) public payable {\r\n        require(msg.value == fee);\r\n\r\n        uint256 id = 0;\r\n\r\n        while (id <= numUsers) {\r\n            if (users[id].addr == msg.sender && !users[id].isUnsubscribed) {\r\n                users[id].amount = (users[id].amount).add(msg.value);\r\n                users[id].endAt = (users[id].endAt).add(\r\n                    (month).mul(monthToSecond)\r\n                );\r\n                users[id].isEnd = false;\r\n                users[id].height = height;\r\n                users[id].weight = weight;\r\n                users[id].height = age;\r\n                users[id].name = name;\r\n            }\r\n\r\n            id++;\r\n        }\r\n\r\n        user memory u = users[numUsers++];\r\n        u.addr = msg.sender;\r\n        u.amount = msg.value;\r\n        u.startAt = block.timestamp;\r\n        u.endAt = u.startAt + (month * monthToSecond);\r\n        u.isEnd = false;\r\n        u.isUnsubscribed = false;\r\n\r\n        emit newUserEnrolled(id);\r\n    }\r\n}\r\n",
  "sourcePath": "C:/fitchain/contracts/fit.sol",
  "compiler": {
    "name": "solc",
    "version": "0.8.3+commit.8d00100c.Emscripten.clang"
  },
  "schemaVersion": "3.4.0",
  "updatedAt": "2021-04-29T12:44:03.813Z",
  "networkType": "ethereum",
  "devdoc": {
    "kind": "dev",
    "methods": {},
    "version": 1
  },
  "userdoc": {
    "kind": "user",
    "methods": {},
    "version": 1
  }
}